S01B00004D696368656C73656E5F46696E616C50726F6A2E737265638D
S11300000C94F5000C941D010C941D010C941D011D
S11300100C941D010C941D010C941D010C941D01E4
S11300200C941D010C941D010C941D010C94700E74
S11300300C941D010C941D010C941D010C941D01C4
S11300400C941D010C941D010C941D010C941D01B4
S11300500C941D010C941D010C941D010C941D01A4
S11300600C941D010C941D01A4D082437BD49243B3
S1130070A4D0A443719DAE430000C4430000DC43FC
S1130080A4F0F64300D0024400005C43A4F076439D
S1130090A4D082437BD49243A4D0A443719DAE43A5
S11300A00000C4430000DC437BD49243A4D0A443A7
S11300B0B8FEB8430000C4430000DC43A4F0F64398
S11300C0AE970A441FD512440000C4430000DC4329
S11300D0A4F0F64300D002441FD5124400D02444B7
S11300E05CFF38445CFF4344808386898C8F9295FF
S11300F0989B9EA2A5A7AAADB0B3B6B9BCBEC1C415
S1130100C6C9CBCED0D3D5D7DADCDEE0E2E4E6E86C
S1130110EAEBEDEEF0F1F3F4F5F6F8F9FAFAFBFC9C
S1130120FDFDFEFEFEFFFFFFFFFFFFFFFEFEFEFDE7
S1130130FDFCFBFAFAF9F8F6F5F4F3F1F0EEEDEB69
S1130140EAE8E6E4E2E0DEDCDAD7D5D3D0CECBC908
S1130150C6C4C1BEBCB9B6B3B0ADAAA7A5A29E9B86
S11301609895928F8C898683807C797673706D6A7A
S11301706764615D5A5855524F4C494643413E3B72
S1130180393634312F2C2A282523211F1D1B1917FA
S1130190151412110F0E0C0B0A09070605050403AA
S11301A0020201010100000000000000010101023F
S11301B002030405050607090A0B0C0E0F1112149D
S11301C01517191B1D1F212325282A2C2F313436DE
S11301D0393B3E414346494C4F5255585A5D616440
S11301E0676A6D707376797CA30E11241FBECFEFFE
S11301F0D8E0DEBFCDBF11E0A0E0B1E0EEE8F4E26C
S113020002C005900D92A233B107D9F722E0A2E310
S1130210B1E001C01D92A933B207E1F710E0C5EFC8
S1130220D0E004C02197FE010E943F12C43FD107D1
S1130230C9F70E9408030C9445120C940000FC01B9
S1130240428953896489758986859785A089B1898E
S1130250840F951FA61FB71F86879787A08BB18B26
S113026086859785A089B1898B2F0895FC014289E1
S113027053896489758986859785A089B189840F96
S1130280951FA61FB71F86879787A08BB18B86857E
S11302909785A089B189468557856089718982854A
S11302A09385A485B585841B950BA60BB70B8B2F63
S11302B00895FC01428953896489758986859785E7
S11302C0A089B189840F951FA61FB71F86879787BA
S11302D0A08BB18B86859785A089B1894685578582
S11302E06089718986899789A08DB18D48175907CE
S11302F06A077B0710F48585089580E008950F93BD
S11303001F93FC0142895389648975898685978581
S1130310A089B189840F951FA61FB71F8687978769
S1130320A08BB18B86859785A089B18906851785B1
S11303302089318982859385A485B585AC01BD0169
S11303407695679557954795401751076207730748
S113035068F086859785A089B189880F991FAA1F9F
S1130360BB1F868B978BA08FB18F10C04685578596
S113037060897189841B950BA60BB70B880F991F95
S1130380AA1FBB1F868B978BA08FB18F818D1F9166
S11303900F910895FC014289538964897589868582
S11303A09785A089B189840F951FA61FB71F8687DB
S11303B09787A08BB18B86859785A089B189EB2F10
S11303C0F0E0E851FF4F84910895CF93DF93EC015F
S11303D080E090E00E946910AB01BC01CE010E9454
S11303E07B111E8A1F8A188E198EDF91CF91089572
S11303F010928000E1E8F0E010828FEC93E090939B
S113040089008093880080818860808380818160F6
S11304108083EFE6F0E080818260808308952A9AE9
S113042028988AE18A95F1F700C0289A2A9827E04B
S113043030E080E093B193FB442740F950E0BA01E7
S1130440022E02C0660F771F0A94E2F7862B299AC0
S11304509AE19A95F1F700C029982150310950F793
S113046008952FE320937E00009719F410927C00E6
S11304700EC08130910521F421E020937C000EC050
S11304808230910521F422E020937C000EC0833059
S1130490910521F483E080937C000CC084309105A5
S11304A021F484E080937C0005C0059719F485E06D
S11304B080937C00EAE7F0E080EA808380818064B6
S11304C08083209178008091790090E0982F88278C
S11304D0820F911D0895CF92DF92EF92FF920F93B6
S11304E01F93CF93DF93EC016A017B0100913501E7
S11304F0109136010817190709F03FC001151105BD
S113050029F483E292E00E947B1122C0013011059C
S113051029F48DE092E00E947B1124C00230110581
S1130520B9F4CB01BA010E943A1080E090E00E9435
S11305306910AB01BC0183EF91E00E947B11109222
S1130540090210920A0210920B0210920C0257C078
S11305500330110539F4B701A60189ED91E00E9439
S11305607B114DC00430110509F049C0B701A60143
S113057083EC91E00E947B1142C080913301909101
S11305803401C817D907D9F5209729F48DEA91E0E9
S11305900E947B1122C0C130D10529F487E991E082
S11305A00E947B1124C0C230D105B9F4CB01BA0139
S11305B00E943A1080E090E00E946910AB01BC01F7
S11305C08DE791E00E947B111092930110929401A7
S11305D0109295011092960112C0C330D10539F4DE
S11305E0B701A60183E691E00E947B1108C024971D
S11305F031F4B701A6018DE491E00E947B11DF91F3
S1130600CF911F910F91FF90EF90DF90CF900895BD
S11306108AB18FEF8AB984B1876084B92398F8943A
S11306200E94F801789460E070E487E391E00E940E
S1130630121260E070E483E292E00E94121260E021
S113064070E48DE092E00E94121260E070E483EFA7
S113065091E00E94121260E070E489ED91E00E9442
S1130660121260E070E483EC91E00E94121260E0E8
S113067070E483E292E00E94121260E070E48DE084
S113068092E00E94121260E070E483EF91E00E9415
S1130690121260E070E489ED91E00E94121260E0B1
S11306A070E483EC91E00E941212C9EDD1E06A85F6
S11306B07B858C859D850E94691020E030E040E0B8
S11306C05FE30E94F7100E943A106E8B7F8B888F35
S11306D0998FC3E6D1E06A857B858C859D850E94D0
S11306E0691020E030E040E05FE30E94F7100E94D0
S11306F03A106E8B7F8B888F998F40E050E060EECC
S113070070E487E391E00E947B11B12CA12C912C21
S1130710812CC7E3D1E07724739480E090E00E94B9
S113072031028FE39CE90197F1F700C0000080E0FB
S113073090E00E9431027C0181E090E00E9431024D
S1130740BC01990F880B990B0E946B102AE038E2C8
S113075040EA5BE30E94F71020E030E0A9010E9428
S1130760550F0E943310709336016093350195E361
S11307709A95F1F7000081E090E00E943102BC01FB
S1130780990F880B990B0E946B102AE038E240EA1B
S11307905BE30E94F71020E030E0A9010E94550FAE
S11307A00E94331070933601609335018FE39CE906
S11307B00197F1F700C0000082E090E00E9431024E
S11307C0BC01990F880B990B0E946B102AE038E248
S11307D040EA5BE30E94F71020E030E0A9010E94A8
S11307E0550F0E94331070933401609333018FE3EB
S11307F09CE90197F1F700C0000082E090E00E94BC
S11308003102BC01990F880B990B0E946B102AE0EE
S113081038E240EA5BE30E94F71020E030E0A901EF
S11308200E94550F0E94331070933401609333017A
S11308300E940F02182F882309F412C1B701FF0C7C
S1130840880B990B0E946B1028E030E240E85BE3D0
S11308500E94F71020E030E0A9010E94550F0E9489
S1130860331010FF13C0FB01EE0FFF1FE295F2954A
S1130870F07FFE27E07FFE27E859FF4FC590D59013
S1130880E590F490BC2CAD2C9E2C8F2C11FF13C042
S1130890FB01EE0FFF1FE295F295F07FFE27E07F4C
S11308A0FE27E459FF4FC590D590E590F490BC2CF9
S11308B0AD2C9E2C8F2C12FF13C0FB01EE0FFF1FDB
S11308C0E295F295F07FFE27E07FFE27E059FF4F87
S11308D0C590D590E590F490BC2CAD2C9E2C8F2C1B
S11308E013FF13C0FB01EE0FFF1FE295F295F07F9B
S11308F0FE27E07FFE27EC58FF4FC590D590E5908A
S1130900F490BC2CAD2C9E2C8F2C14FF13C0FB0137
S1130910EE0FFF1FE295F295F07FFE27E07FFE27A2
S1130920E858FF4FC590D590E590F490BC2CAD2CC1
S11309309E2C8F2C15FF13C0FB01EE0FFF1FE295B9
S1130940F295F07FFE27E07FFE27E458FF4FC59025
S1130950D590E590F490BC2CAD2C9E2C8F2C16FFDA
S113096013C0FB01EE0FFF1FE295F295F07FFE2707
S1130970E07FFE27E058FF4FC590D590E590F490B6
S1130980BC2CAD2C9E2C8F2C11239CF4FB01EE0F60
S1130990FF1FE295F295F07FFE27E07FFE27EC57DC
S11309A0FF4F85919591A591B491B82EA92E9A2EB9
S11309B08B2E4A895B896C897D898E859F85A88960
S11309C0B989840F951FA61FB71F8E879F87A88B91
S11309D0B98B8E859F85A889B989EB2FF0E0E85102
S11309E0FF4FE4916E2F70E0FB010E2EEF2F000CF1
S11309F0EE1FFF0B000CEE1FFF1FBF01FF0F880B44
S1130A00990B0E946B106B017C01009135011091D0
S1130A1036019B01AC016B2D7A2D892D982D0E94F6
S1130A20550FAB01BC01C8010E946B020091330158
S1130A30109134012B2D3A2D492D582D6B2D7A2DE3
S1130A40892D982D0E94550FA70196010E94550FDC
S1130A50AB01BC01C8010E946B02709232015DCEF1
S1130A60809135019091360140E050E0BA010E9436
S1130A706B02809133019091340140E050E0BA015F
S1130A800E946B021092320148CECF92DF92EF9215
S1130A90FF920F931F93CF93DF93009709F0AAC19E
S1130AA06115710509F04AC0E3E2F2E00289138995
S1130AB02489358986859785A089B189800F911FFE
S1130AC0A21FB31F86879787A08BB18B86859785D6
S1130AD0A089B18986859785A089B1890285138506
S1130AE024853585081B190B2A0B3B0BEDEAF1E035
S1130AF0C288D388E488F58886859785A089B189DA
S1130B008C0D9D1DAE1DBF1D86879787A08BB18B55
S1130B1086859785A089B189C684D784E088F188C1
S1130B2082859385A485B5858C199D09AE09BF0975
S1130B308B2F869586958695830FBCC06130710591
S1130B40F1F5E3E2F2E00289138924893589868587
S1130B509785A089B189800F911FA21FB31F868733
S1130B609787A08BB18B86859785A089B189868567
S1130B709785A089B1890285138524853585081B4D
S1130B80190B2A0B3B0BE7E9F1E0C288D388E48810
S1130B90F58886859785A089B1898C0D9D1DAE1D2C
S1130BA0BF1D86879787A08BB18B86859785A08983
S1130BB0B1898B2F869586958695830FD1C0623037
S1130BC0710509F076C0E3E2F2E042895389648951
S1130BD0758986859785A089B189840F951FA61F7D
S1130BE0B71F86879787A08BB18B86859785A08949
S1130BF0B189468557856089718982859385A485E5
S1130C00B585841B950BA60BB70B8B2F9927AA27A9
S1130C10BB27EDE7F1E002891389248935894685EC
S1130C20578560897189400F511F621F731F468762
S1130C305787608B718B4685578560897189C68417
S1130C40D784E088F18842855385648575858A0157
S1130C509B0136952795179507950C151D052E05AF
S1130C603F0568F04685578560897189440F551F93
S1130C70661F771F468B578B608F718F12C0EDE70D
S1130C80F1E00685178520893189401B510B620BE1
S1130C90730B440F551F661F771F468B578B608F4E
S1130CA0718FE0919601E695E695E6958E0F0C948A
S1130CB0670E80E06330710509F052C0E3E2F2E0B0
S1130CC0428953896489758986859785A089B18904
S1130CD0840F951FA61FB71F86879787A08BB18B9C
S1130CE086859785A089B1894685578560897189EC
S1130CF082859385A485B585841B950BA60BB70BBC
S1130D008B2F9927AA27BB27E3E6F1E002891389F1
S1130D10248935894685578560897189400F511F1B
S1130D20621F731F46875787608B718B4685578573
S1130D306089718906851785208931894689578993
S1130D40608D718D041715072607370718F4E09195
S1130D50700101C0E0E0E695E695E6958E0FB7C711
S1130D606430710509F0B3C7E3E2F2E042895389C4
S1130D706489758986859785A089B189840F951FB3
S1130D80A61FB71F86879787A08BB18B868597850B
S1130D90A089B18946855785608971898285938543
S1130DA0A485B585841B950BA60BB70B8B2F9927B0
S1130DB0AA27BB27EDE4F1E0028913892489358948
S1130DC04685578560897189400F511F621F731FC3
S1130DD046875787608B718B4685578560897189F3
S1130DE0E72FF0E0E851FF4FE491E695E695E695AC
S1130DF08E0F6DC78130910509F068C161157105C9
S1130E00F1F5EDE0F2E002891389248935898685BC
S1130E109785A089B189800F911FA21FB31F868770
S1130E209787A08BB18B0685178520893189EDEAD8
S1130E30F1E0C288D388E488F58886859785A089FF
S1130E40B1898C0D9D1DAE1DBF1D86879787A08B14
S1130E50B18B86859785A089B189C684D784E088BB
S1130E60F18882859385A485B5858C199D09AE0981
S1130E70BF098B2F869586958695830FA3C0613015
S1130E80710591F5EDE0F2E0028913892489358931
S1130E9086859785A089B189800F911FA21FB31FF2
S1130EA086879787A08BB18B068517852089318922
S1130EB0E7E9F1E0C288D388E488F58886859785D8
S1130EC0A089B1898C0D9D1DAE1DBF1D8687978796
S1130ED0A08BB18B86859785A089B1898B2F869548
S1130EE086958695830FB8C06230710509F069C094
S1130EF0EDE0F2E042895389648975898685978596
S1130F00A089B189840F951FA61FB71F868797876D
S1130F10A08BB18B86859785A089B1898B2F992762
S1130F20AA27BB27EDE7F1E00289138924893589D3
S1130F304685578560897189400F511F621F731F51
S1130F4046875787608B718B468557856089718981
S1130F50C684D784E088F188428553856485758585
S1130F608A019B0136952795179507950C151D0544
S1130F702E053F0568F04685578560897189440FC1
S1130F80551F661F771F468B578B608F718F12C05A
S1130F90EDE7F1E00685178520893189401B510B67
S1130FA0620B730B440F551F661F771F468B578BBD
S1130FB0608F718FE0919601E695E695E6958E0F28
S1130FC086C680E06330710509F046C0EDE0F2E0CA
S1130FD0428953896489758986859785A089B189F1
S1130FE0840F951FA61FB71F86879787A08BB18B89
S1130FF086859785A089B1898B2F9927AA27BB2736
S1131000E3E6F1E002891389248935894685578509
S113101060897189400F511F621F731F468757876C
S1131020608B718B46855785608971890685178524
S11310302089318946895789608D718D0417150778
S11310402607370718F4E091700101C0E0E0E69547
S1131050E695E6958E0F3BC66430710509F037C6F8
S1131060EDE0F2E042895389648975898685978524
S1131070A089B189840F951FA61FB71F86879787FC
S1131080A08BB18B4685578560897189EDE4F1E0C9
S1131090028913892489358986859785A089B18930
S11310A0800F911FA21FB31F86879787A08BB18BD8
S11310B086859785A089B189EB2FF0E0E851FF4F31
S11310C08491869586958695870F01C68230910511
S11310D009F090C26115710509F07EC0E3EFF1E0FB
S11310E0028913892489358986859785A089B189E0
S11310F0800F911FA21FB31F86879787A08BB18B88
S113110086859785A089B189C684D784E088F188CB
S113111082859385A485B5858C019D013695279597
S1131120179507950C151D052E053F0568F0868556
S11311309785A089B189880F991FAA1FBB1F868B29
S1131140978BA08FB18F12C0E3EFF1E0068517856E
S113115020893189801B910BA20BB30B880F991F37
S1131160AA1FBB1F868B978BA08FB18FE0910C02B7
S1131170ADEAB1E05296CD90DD90ED90FC9055979C
S11311801E960D911D912D913C9151970C0D1D1D95
S11311902E1D3F1D1E960D931D932D933C93519729
S11311A01E960D911D912D913C9151971E96CD90B7
S11311B0DD90ED90FC9051971A960D911D912D9113
S11311C03C911D970C191D092E093F09832F869503
S11311D0869586958E0F12C16130710509F066C03F
S11311E0E3EFF1E00289138924893589868597859F
S11311F0A089B189800F911FA21FB31F868797878B
S1131200A08BB18B86859785A089B189C684D78444
S1131210E088F18882859385A485B5858C019D013C
S113122036952795179507950C151D052E053F0531
S113123068F086859785A089B189880F991FAA1FB0
S1131240BB1F868B978BA08FB18F12C0E3EFF1E0A9
S11312500685178520893189801B910BA20BB30B5E
S1131260880F991FAA1FBB1F868B978BA08FB18FE6
S113127080910C02E7E9F1E0C288D388E488F5881C
S113128006851785208931890C0D1D1D2E1D3F1DD6
S113129006871787208B318B06851785208931892E
S11312A0E32FE695E695E6958E0F2CC16230710525
S11312B009F0A3C0E3EFF1E0428953896489758999
S11312C086859785A089B189840F951FA61FB71FAE
S11312D086879787A08BB18B86859785A089B189EE
S11312E0068517852089318982859385A485B585EE
S11312F0AC01BD0176956795579547954017510701
S11313006207730768F086859785A089B189880F7D
S1131310991FAA1FBB1F868B978BA08FB18F12C0FA
S1131320E3EFF1E04685578560897189841B950B4D
S1131330A60BB70B880F991FAA1FBB1F868B978B11
S1131340A08FB18F8091090290910A02A0910B02A3
S1131350B0910C028B2F9927AA27BB27EDE7F1E068
S1131360028913892489358946855785608971895D
S1131370400F511F621F731F46875787608B718B05
S11313804685578560897189C684D784E088F18849
S113139042855385648575858A019B013695279519
S11313A0179507950C151D052E053F0568F0468514
S11313B0578560897189440F551F661F771F468BB7
S11313C0578B608F718F12C0EDE7F1E006851785AA
S11313D020893189401B510B620B730B440F551F3D
S11313E0661F771F468B578B608F718FE091960134
S11313F0E695E695E6958E0F6AC480E06330710544
S113140009F080C0E3EFF1E042895389648975896A
S113141086859785A089B189840F951FA61FB71F5C
S113142086879787A08BB18B86859785A089B1899C
S1131430068517852089318982859385A485B5859C
S1131440AC01BD01769567955795479540175107AF
S11314506207730768F086859785A089B189880F2C
S1131460991FAA1FBB1F868B978BA08FB18F12C0A9
S1131470E3EFF1E04685578560897189841B950BFC
S1131480A60BB70B880F991FAA1FBB1F868B978BC0
S1131490A08FB18F8091090290910A02A0910B0252
S11314A0B0910C028B2F9927AA27BB27E3E6F1E022
S11314B0028913892489358946855785608971890C
S11314C0400F511F621F731F46875787608B718BB4
S11314D046855785608971890685178520893189F4
S11314E046895789608D718D0417150726073707BC
S11314F018F4E091700101C0E0E0E695E695E69508
S11315008E0FE5C36430710509F0E1C3E3EFF1E048
S1131510428953896489758986859785A089B189AB
S1131520840F951FA61FB71F86879787A08BB18B43
S113153086859785A089B189068517852089318993
S113154082859385A485B585AC01BD0176956795A3
S113155057954795401751076207730768F08685CA
S11315609785A089B189880F991FAA1FBB1F868BF5
S1131570978BA08FB18F12C0E3EFF1E046855785BA
S113158060897189841B950BA60BB70B880F991F73
S1131590AA1FBB1F868B978BA08FB18F80910902E6
S11315A090910A02A0910B02B0910C028B2F992703
S11315B0AA27BB27EDE4F1E0028913892489358940
S11315C04685578560897189400F511F621F731FBB
S11315D046875787608B718B4685578560897189EB
S11315E0E72FF0E0E851FF4FE491E695E695E695A4
S11315F08E0F6DC38330910509F0C3C16115710568
S113160009F05BC0E9EDF1E0028913892489358989
S113161086859785A089B189800F911FA21FB31F6A
S113162086879787A08BB18B86859785A089B1899A
S1131630068517852089318986899789A08DB18D82
S1131640081719072A073B0718F4E091E60101C0BF
S1131650E0E0ADEAB1E05296CD90DD90ED90FC90E3
S113166055971E960D911D912D913C9151970C0DFE
S11316701D1D2E1D3F1D1E960D931D932D933C93F2
S113168051971E960D911D912D913C9151971E9647
S1131690CD90DD90ED90FC9051971A960D911D918F
S11316A02D913C911D970C191D092E093F09832F7B
S11316B08695869586958E0FC2C06130710509F0B6
S11316C043C0E9EDF1E002891389248935898685CF
S11316D09785A089B189800F911FA21FB31F8687A8
S11316E09787A08BB18B86859785A089B18906855C
S11316F017852089318986899789A08DB18D08172E
S113170019072A073B0718F48091E60101C080E01D
S1131710E7E9F1E0C288D388E488F588068517856F
S1131720208931890C0D1D1D2E1D3F1D068717872D
S1131730208B318B0685178520893189E32FE69527
S1131740E695E6958E0FD2C06230710509F076C039
S1131750E9EDF1E042895389648975898685978525
S1131760A089B189840F951FA61FB71F8687978705
S1131770A08BB18B86859785A089B18946855785CD
S11317806089718986899789A08DB18D4817590719
S11317906A077B0718F49091E60101C090E0EDE739
S11317A0F1E0028913892489358946855785608942
S11317B07189400F511F621F731F46875787608BC3
S11317C0718B4685578560897189C684D784E08882
S11317D0F18842855385648575858A019B01369518
S11317E02795179507950C151D052E053F0568F0DF
S11317F04685578560897189440F551F661F771F79
S1131800468B578B608F718F12C0EDE7F1E0068530
S1131810178520893189401B510B620B730B440FD0
S1131820551F661F771F468B578B608F718F809172
S11318309601869586958695890F49C280E0633026
S1131840710509F053C0E9EDF1E0428953896489D7
S1131850758986859785A089B189840F951FA61FF0
S1131860B71F86879787A08BB18B86859785A089BC
S1131870B189468557856089718986899789A08D44
S1131880B18D481759076A077B0718F49091E60150
S113189001C090E0E3E6F1E00289138924893589E7
S11318A04685578560897189400F511F621F731FD8
S11318B046875787608B718B468557856089718908
S11318C0068517852089318946895789608D718DF0
S11318D0041715072607370718F48091700101C013
S11318E080E0869586958695890FF1C164307105EF
S11318F009F0EDC1E9EDF1E0428953896489758904
S113190086859785A089B189840F951FA61FB71F67
S113191086879787A08BB18B86859785A089B189A7
S1131920468557856089718986899789A08DB18D8F
S1131930481759076A077B0718F49091E60101C01C
S113194090E0EDE4F1E00289138924893589468524
S1131950578560897189400F511F621F731F468725
S11319605787608B718B4685578560897189E72F0E
S1131970F0E0E851FF4F8491869586958695890F0E
S1131980A6C1049709F0A2C16115710509F04FC001
S1131990E3ECF1E0028913892489358986859785EA
S11319A0A089B189800F911FA21FB31F86879787D3
S11319B0A08BB18B86859785A089B189EB2FF0E048
S11319C0E851FF4FE491ADEAB1E05296CD90DD903D
S11319D0ED90FC9055971E960D911D912D913C9183
S11319E051970C0D1D1D2E1D3F1D1E960D931D930D
S11319F02D933C9351971E960D911D912D913C91E1
S1131A0051971E96CD90DD90ED90FC9051971A96CB
S1131A100D911D912D913C911D970C191D092E09B5
S1131A203F09832F8695869586958E0FC5C06130B4
S1131A30710509F03FC0E3ECF1E0028913892489C0
S1131A40358986859785A089B189800F911FA21F4A
S1131A50B31F86879787A08BB18B86859785A089CE
S1131A60B189EB2FF0E0E851FF4FE491A7E9B1E031
S1131A705296CD90DD90ED90FC9055971E960D9169
S1131A801D912D913C9151970C0D1D1D2E1D3F1D37
S1131A901E960D931D932D933C9351971E968D91F5
S1131AA09D910D90BC91A02D8B2F86958695869542
S1131AB08E0FCDC06230710509F07DC0E3ECF1E01A
S1131AC0428953896489758986859785A089B189F6
S1131AD0840F951FA61FB71F86879787A08BB18B8E
S1131AE086859785A089B189EB2FF0E0E851FF4FF7
S1131AF0E491ADE7B1E052960D911D912D913C9189
S1131B0055971E964D915D916D917C915197400F23
S1131B10511F621F731F1E964D935D936D937C93AB
S1131B2051971E964D915D916D917C9151971E96A2
S1131B300D911D912D913C9151971A964D915D9166
S1131B406D917C911D97DB01CA01B695A795979578
S1131B50879580179107A207B30778F0CDE7D1E006
S1131B608E859F85A889B989880F991FAA1FBB1FD5
S1131B708E8B9F8BA88FB98F16C0ADE7B1E01E96F0
S1131B800D911D912D913C915197401B510B620B6E
S1131B90730B440F551F661F771F56964D935D9325
S1131BA06D937C93599790919601892F869586958C
S1131BB086958E0F8CC080E06330710509F047C0B4
S1131BC0E3ECF1E0428953896489758986859785B8
S1131BD0A089B189840F951FA61FB71F8687978791
S1131BE0A08BB18B86859785A089B189EB2FF0E016
S1131BF0E851FF4F9491E3E6F1E0028913892489C7
S1131C0035894685578560897189400F511F621F48
S1131C10731F46875787608B718B4685578560890C
S1131C207189068517852089318946895789608D90
S1131C30718D041715072607370718F48091700172
S1131C4001C080E0869586958695890F40C06430F2
S1131C50710509F03CC0E3ECF1E0428953896489E1
S1131C60758986859785A089B189840F951FA61FDC
S1131C70B71F86879787A08BB18B86859785A089A8
S1131C80B189EB2FF0E0E851FF4F9491EDE4F1E0DE
S1131C900289138924893589468557856089718924
S1131CA0400F511F621F731F46875787608B718BCC
S1131CB04685578560897189E72FF0E0E851FF4F29
S1131CC08491869586958695890F01C080E0DF9181
S1131CD0CF911F910F91FF90EF90DF90CF900895D7
S1131CE01F920F920FB60F9211242F933F934F938D
S1131CF05F936F937F938F939F93AF93BF93EF9370
S1131D00FF9380913201882361F0609133017091D7
S1131D10340180913501909136010E9445058BB9BB
S1131D2001C01BB8FF91EF91BF91AF919F918F912B
S1131D307F916F915F914F913F912F910F900FBEC3
S1131D400F901F901895AF92BF92CF92DF92EF92AF
S1131D50FF920F931F93CF93DF9383E292E00E944D
S1131D600A120F2EFCE0AF2EF1E0BF2EF02DB09240
S1131D702402A09223028DE092E00E940A120F2E08
S1131D80F4E0CF2EF1E0DF2EF02DD0920E02C092BF
S1131D900D0283EF91E00E940A12E3EFF1E00CE1FF
S1131DA011E011830083168A178A108E118E89ED33
S1131DB091E00E940A12C9EDD1E00F2EF4E1EF2E5A
S1131DC0F1E0FF2EF02DF982E8826A857B858C850F
S1131DD09D850E94691020E030E040E05FE30E94AE
S1131DE0F7100E943A106E8B7F8B888F998F83EC4B
S1131DF091E00E940A12C6E2D1E0D093C401C093DC
S1131E00C3018DEA91E00E940A12B092AE01A09241
S1131E10AD0187E991E00E940A12D0929801C09224
S1131E2097018DE791E00E940A12EDE7F1E011833A
S1131E300083168A178A108E118E83E691E00E9421
S1131E400A1203E611E0F801F182E08262857385EB
S1131E50848595850E94691020E030E040E05FE3CE
S1131E600E94F7100E943A10F801668B778B808FDE
S1131E70918F8DE491E00E940A12D0934E01C09399
S1131E804D0187E391E00E940A12D0933801C09378
S1131E903701DF91CF911F910F91FF90EF90DF9069
S1131EA0CF90BF90AF9008955058BB27AA270E94A7
S1131EB06C0F0C94BD100E94AF1038F00E94B61045
S1131EC020F039F49F3F19F426F40C94AC100EF46E
S1131ED0E095E7FB0C94A610E92F0E94CE1058F36E
S1131EE0BA17620773078407950720F079F4A6F5FB
S1131EF00C94F0100EF4E0950B2EBA2FA02D0B01CC
S1131F00B90190010C01CA01A0011124FF27591B3A
S1131F1099F0593F50F4503E68F11A16F040A22F40
S1131F20232F342F4427585FF3CF469537952795B1
S1131F30A795F0405395C9F77EF41F16BA0B620BB0
S1131F40730B840BBAF09150A1F0FF0FBB1F661FF7
S1131F50771F881FC2F70EC0BA0F621F731F841F3A
S1131F6048F4879577956795B795F7959E3F08F060
S1131F70B0CF9395880F08F09927EE0F9795879522
S1131F8008950E94D50F0C94BD100E94B61058F00D
S1131F900E94AF1040F029F45F3F29F00C94A61082
S1131FA051110C94F1100C94AC100E94CE1068F3F3
S1131FB09923B1F3552391F3951B550BBB27AA27FE
S1131FC062177307840738F09F5F5F4F220F331F38
S1131FD0441FAA1FA9F335D00E2E3AF0E0E832D000
S1131FE091505040E695001CCAF72BD0FE2F29D003
S1131FF0660F771F881FBB1F261737074807AB07D5
S1132000B0E809F0BB0B802DBF01FF2793585F4F49
S11320103AF09E3F510578F00C94A6100C94F11000
S11320205F3FE4F3983ED4F3869577956795B7952B
S1132030F7959F5FC9F7880F911D9695879597F936
S11320400895E1E0660F771F881FBB1F62177307AF
S11320508407BA0720F0621B730B840BBA0BEE1FC4
S113206088F7E09508950E943A106894B1110C9491
S1132070F11008950E94D61088F09F5798F0B92F58
S11320809927B751B0F0E1F0660F771F881F991FA9
S11320901AF0BA95C9F714C0B13091F00E94F0104B
S11320A0B1E008950C94F010672F782F8827B85F5B
S11320B039F0B93FCCF3869577956795B395D9F701
S11320C03EF490958095709561957F4F8F4F9F4F0B
S11320D00895E89409C097FB3EF490958095709517
S11320E061957F4F8F4F9F4F9923A9F0F92F96E960
S11320F0BB279395F695879577956795B795F111D5
S1132100F8CFFAF4BB0F11F460FF1BC06F5F7F4F71
S11321108F4F9F4F16C0882311F096E911C0772383
S113212021F09EE8872F762F05C0662371F096E88C
S1132130862F70E060E02AF09A95660F771F881F5B
S1132140DAF7880F9695879597F9089597F99F6719
S113215080E870E060E008959FEF80EC089500242B
S11321600A941616170618060906089500240A94F8
S113217012161306140605060895092E0394000C7E
S113218011F4882352F0BB0F40F4BF2B11F460FF0D
S113219004C06F5F7F4F8F4F9F4F089557FD905836
S11321A0440F551F59F05F3F71F04795880F97FB17
S11321B0991F61F09F3F79F08795089512161306D1
S11321C01406551FF2CF4695F1DF08C01616170600
S11321D01806991FF1CF8695710561050894089535
S11321E0E894BB2766277727CB0197F908950E94C7
S11321F00A110C94BD100E94AF1038F00E94B61062
S113220020F0952311F00C94A6100C94AC1011241A
S11322100C94F1100E94CE1070F3959FC1F3950FAA
S113222050E0551F629FF001729FBB27F00DB11D56
S1132230639FAA27F00DB11DAA1F649F6627B00DE6
S1132240A11D661F829F2227B00DA11D621F739FCF
S1132250B00DA11D621F839FA00D611D221F749FDD
S11322603327A00D611D231F849F600D211D822F24
S1132270762F6A2F11249F5750409AF0F1F088234B
S11322804AF0EE0FFF1FBB1F661F771F881F915078
S11322905040A9F79E3F510580F00C94A6100C9471
S11322A0F1105F3FE4F3983ED4F3869577956795F4
S11322B0B795F795E7959F5FC1F7FE2B880F911DA2
S11322C09695879597F90895FC0142895389648905
S11322D0758986859785A089B189840F951FA61F66
S11322E0B71F86879787A08BB18B86859785A08932
S11322F0B1898B2F0895CF92DF92EF92FF920F93C3
S11323001F93CF93DF93EC016A017B0120E030E05F
S1132310A901C701B6010E941612882329F0CC82B4
S1132320DD82EE82FF8208C080E090E0A0E8BFE397
S11323308C839D83AE83BF830A811B816A857B85E1
S11323408C859D850E9469102C813D814E815F8121
S11323500E94F7106B017C01B8017695679580E0C7
S113236090E00E9469109B01AC01C701B6010E9474
S1132370550F6B017C01B80180E090E00E94691068
S11323809B01AC01C701B6010E94C10F0E943A1023
S11323906A8B7B8B8C8B9D8B8A899B89AC89BD894D
S11323A0892B8A2B8B2B41F481E090E0A0E0B0E0F4
S11323B08A8B9B8BAC8BBD8BDF91CF911F910F913F
S11323C0FF90EF90DF90CF900895FC0180E090E4BF
S11323D09383828380E090E0ACEDB3E484839583BF
S11323E0A683B7838FEF90E0918780878FEF9FEF6D
S11323F0DC0182879387A487B58781E090E0A0E021
S1132400B0E0828B938BA48BB58B16861786108ACB
S1132410118A08952EE231E0FC01318320830E9469
S1132420E5110895FC017383628308950E941B12D1
S113243008F481E00895990F0008550FAA0BE0E80D
S1132440FEEF16161706E807F907C0F01216130672
S1132450E407F50798F0621B730B840B950B39F4B2
S11324600A2661F0232B242B252B21F408950A2618
S113247009F4A140A6958FEF811D811D0895EE0FEB
S1112480FF1F0590F491E02D0994F894FFCF0E
S113248E000000007B111F01000000007B113601CB
S113249E000000007B115901000000007B117F0138
S11324AEE501000000007B11CA01000000007B1151
S10524BE6411A3
S9030000FC
